:020000040800F2
:1000000000500020C1190008ED160008F516000880
:10001000FD160008051700080D1700080000000075
:10002000000000000000000000000000151700089C
:1000300021170008000000002D17000839170008DC
:10004000091A0008091A0008091A0008091A000804
:10005000091A0008091A0008091A0008091A0008F4
:10006000091A0008091A0008091A0008091A0008E4
:10007000091A0008091A0008091A0008091A0008D4
:10008000091A0008091A0008091A0008091A0008C4
:10009000091A0008091A0008091A0008091A0008B4
:1000A000091A0008091A0008091A0008091A0008A4
:1000B000091A0008091A0008091A0008091A000894
:1000C000091A0008091A0008091A0008091A000884
:1000D000091A0008091A0008091A0008091A000874
:1000E000091A0008091A0008091A0008000000008F
:1000F0000000000000000000000000000000000000
:0C01000000000000000000005FF808F1A3
:1001100010B5054C237833B9044B13B10448AFF341
:1001200000800123237010BDD401002000000000D6
:100130004872000808B5034B1BB103490348AFF3ED
:10014000008008BD00000000D801002048720008AF
:10015000034613F8012B002AFBD1181A0138704707
:1001600081F0004102E000BF83F0004330B54FEA68
:1001700041044FEA430594EA050F08BF90EA020FD5
:100180001FBF54EA000C55EA020C7FEA645C7FEA68
:10019000655C00F0E2804FEA5454D4EB5555B8BF8B
:1001A0006D420CDD2C4480EA020281EA030382EAFC
:1001B000000083EA010180EA020281EA0303362D8E
:1001C00088BF30BD11F0004F4FEA01314FF4801C61
:1001D0004CEA113102D0404261EB410113F0004F73
:1001E0004FEA03334CEA133302D0524263EB43032A
:1001F00094EA050F00F0A780A4F10104D5F1200EC8
:100200000DDB02FA0EFC22FA05F2801841F1000122
:1002100003FA0EF2801843FA05F359410EE0A5F1F6
:1002200020050EF1200E012A03FA0EFC28BF4CF027
:10023000020C43FA05F3C01851EBE37101F00045DD
:1002400007D54FF0000EDCF1000C7EEB00006EEBEA
:100250000101B1F5801F1BD3B1F5001F0CD3490874
:100260005FEA30004FEA3C0C04F101044FEA4452CB
:1002700012F5800F80F09A80BCF1004F08BF5FEA52
:10028000500C50F1000041EB045141EA050130BD32
:100290005FEA4C0C404141EB0101013C28BFB1F544
:1002A000801FE9D291F0000F04BF01460020B1FA8F
:1002B00081F308BF2033A3F10B03B3F120020CDA62
:1002C0000C3208DD02F1140CC2F10C0201FA0CF040
:1002D00021FA02F10CE002F11402D8BFC2F1200CA5
:1002E00001FA02F120FA0CFCDCBF41EA0C0190405B
:1002F000E41AA2BF01EB0451294330BD6FEA0404A4
:100300001F3C1CDA0C340EDC04F11404C4F120028E
:1003100020FA04F001FA02F340EA030021FA04F3A0
:1003200045EA030130BDC4F10C04C4F1200220FAF7
:1003300002F001FA04F340EA0300294630BD21FA35
:1003400004F0294630BD94F0000F83F4801306BFFB
:1003500081F480110134013D4EE77FEA645C18BFEF
:100360007FEA655C29D094EA050F08BF90EA020F86
:1003700005D054EA000C04BF1946104630BD91EA7E
:10038000030F1EBF0021002030BD5FEA545C05D181
:100390004000494128BF41F0004130BD14F58004C0
:1003A0003CBF01F5801130BD01F0004545F0FE4134
:1003B00041F470014FF0000030BD7FEA645C1ABF69
:1003C000194610467FEA655C1CBF0B46024650EAA0
:1003D000013406BF52EA033591EA030F41F40021CC
:1003E00030BD00BF90F0000F04BF0021704730B552
:1003F0004FF4806404F132044FF000054FF0000127
:1004000050E700BF90F0000F04BF0021704730B5E7
:100410004FF4806404F1320410F0004548BF4042BC
:100420004FF000013EE700BF42004FEAE2014FEA11
:1004300031014FEA02701FBF12F07F4393F07F4FEC
:1004400081F06051704732F07F4208BF704793F0EF
:100450007F4F04BF41F40021704730B54FF4607402
:1004600001F0004521F000411CE700BF50EA010205
:1004700008BF704730B54FF000050AE050EA0102AE
:1004800008BF704730B511F0004502D5404261EB1E
:1004900041014FF4806404F132045FEA915C3FF45F
:1004A000D8AE4FF003025FEADC0C18BF03325FEAFC
:1004B000DC0C18BF033202EBDC02C2F1200300FAAD
:1004C00003FC20FA02F001FA03FE40EA0E0021FAD2
:1004D00002F11444BDE600BF70B54FF0FF0C4CF4C0
:1004E000E06C1CEA11541DBF1CEA135594EA0C0F72
:1004F00095EA0C0F00F0DEF82C4481EA030621EAAD
:100500004C5123EA4C5350EA013518BF52EA0335E7
:1005100041F4801143F4801338D0A0FB02CE4FF099
:100520000005E1FB02E506F00042E0FB03E54FF0C9
:100530000006E1FB03569CF0000F18BF4EF0010EC1
:10054000A4F1FF04B6F5007F64F5407404D25FEABD
:100550004E0E6D4146EB060642EAC62141EA555170
:100560004FEAC52040EA5E504FEACE2EB4F1FD0CB2
:1005700088BFBCF5E06F1ED8BEF1004F08BF5FEA30
:10058000500E50F1000041EB045170BD06F00046E2
:1005900046EA010140EA020081EA0301B4EB5C048F
:1005A000C2BFD4EB0C0541EA045170BD41F4801187
:1005B0004FF0000E013C00F3AB8014F1360FDEBFAC
:1005C000002001F0004170BDC4F10004203C35DA88
:1005D0000C341BDC04F11404C4F1200500FA05F30B
:1005E00020FA04F001FA05F240EA020001F00042AC
:1005F00021F0004110EBD37021FA04F642EB060122
:100600005EEA430E08BF20EAD37070BDC4F10C044B
:10061000C4F1200500FA04F320FA05F001FA04F20F
:1006200040EA020001F0004110EBD37041F10001FB
:100630005EEA430E08BF20EAD37070BDC4F1200506
:1006400000FA05F24EEA020E20FA04F301FA05F26E
:1006500043EA020321FA04F001F0004121FA04F216
:1006600020EA020000EBD3705EEA430E08BF20EAE6
:10067000D37070BD94F0000F0FD101F00046400020
:1006800041EB010111F4801F08BF013CF7D041EAA2
:10069000060195F0000F18BF704703F000465200A6
:1006A00043EB030313F4801F08BF013DF7D043EA77
:1006B0000603704794EA0C0F0CEA135518BF95EA2D
:1006C0000C0F0CD050EA410618BF52EA4306D1D1B4
:1006D00081EA030101F000414FF0000070BD50EAD3
:1006E000410606BF1046194652EA430619D094EA5D
:1006F0000C0F02D150EA013613D195EA0C0F05D147
:1007000052EA03361CBF104619460AD181EA03019A
:1007100001F0004141F0FE4141F470014FF0000052
:1007200070BD41F0FE4141F4780170BD70B54FF0ED
:10073000FF0C4CF4E06C1CEA11541DBF1CEA13556D
:1007400094EA0C0F95EA0C0F00F0A7F8A4EB05044F
:1007500081EA030E52EA03354FEA013100F0888046
:100760004FEA03334FF0805545EA131343EA12630F
:100770004FEA022245EA111545EA10654FEA0026C4
:100780000EF000419D4208BF964244F1FD0404F57D
:10079000407402D25B084FEA3202B61A65EB0305D9
:1007A0005B084FEA32024FF480104FF4002CB6EB96
:1007B000020E75EB030E22BFB61A754640EA0C0016
:1007C0005B084FEA3202B6EB020E75EB030E22BF56
:1007D000B61A754640EA5C005B084FEA3202B6EB97
:1007E000020E75EB030E22BFB61A754640EA9C0056
:1007F0005B084FEA3202B6EB020E75EB030E22BF26
:10080000B61A754640EADC0055EA060E18D04FEAE3
:10081000051545EA16754FEA06164FEAC30343EA83
:1008200052734FEAC2025FEA1C1CC0D111F4801F50
:100830000BD141EA00014FF000004FF0004CB6E749
:1008400011F4801F04BF01430020B4F1FD0C88BFE8
:10085000BCF5E06F3FF6AFAEB5EB030C04BFB6EBF3
:10086000020C5FEA500C50F1000041EB045170BDE6
:100870000EF0004E4EEA113114EB5C04C2BFD4EB13
:100880000C0541EA045170BD41F480114FF0000E97
:10089000013C90E645EA060E8DE60CEA135594EA13
:1008A0000C0F08BF95EA0C0F3FF43BAF94EA0C0F16
:1008B0000AD150EA01347FF434AF95EA0C0F7FF48B
:1008C00025AF104619462CE795EA0C0F06D152EADF
:1008D00003353FF4FDAE1046194622E750EA4106C3
:1008E00018BF52EA43067FF4C5AE50EA41047FF4D4
:1008F0000DAF52EA43057FF4EBAE12E74FF0FF3C39
:1009000006E000BF4FF0010C02E000BF4FF0010C09
:100910004DF804CD4FEA410C7FEA6C5C4FEA430C82
:1009200018BF7FEA6C5C1BD001B050EA410C0CBFD1
:1009300052EA430C91EA030F02BF90EA020F002033
:10094000704710F1000F91EA030F58BF994208BF9A
:1009500090422CBFD8176FEAE37040F00100704757
:100960004FEA410C7FEA6C5C02D150EA013C07D1AE
:100970004FEA430C7FEA6C5CD6D152EA033CD3D0F9
:100980005DF8040B704700BF8446104662468C46F3
:100990001946634600E000BF01B5FFF7B7FF002826
:1009A00048BF10F1000F01BD4DF808EDFFF7F4FF4F
:1009B0000CBF012000205DF808FB00BF4DF808EDDA
:1009C000FFF7EAFF34BF012000205DF808FB00BFFD
:1009D0004DF808EDFFF7E0FF94BF012000205DF81F
:1009E00008FB00BF4DF808EDFFF7CEFF94BF0120D4
:1009F00000205DF808FB00BF4DF808EDFFF7C4FFCD
:100A000034BF012000205DF808FB00BF4FEA410C15
:100A10007FEA6C5C02D150EA013C0AD14FEA430CF8
:100A20007FEA6C5C02D152EA033C02D14FF0000035
:100A300070474FF0010070474FEA410212F5001273
:100A400015D211D56FF47873B3EB625212D94FEA15
:100A5000C12343F0004343EA505311F0004F23FAFF
:100A600002F018BF404270474FF00000704750EA54
:100A7000013005D111F0004008BF6FF00040704711
:100A80004FF00000704700BF80F0004002E000BF60
:100A900081F0004142001FBF5FEA410392EA030F69
:100AA0007FEA226C7FEA236C6AD04FEA1262D2EBB3
:100AB0001363C1BFD218414048404140B8BF5B42B8
:100AC000192B88BF704710F0004F40F4000020F051
:100AD0007F4018BF404211F0004F41F4000121F067
:100AE0007F4118BF494292EA030F3FD0A2F10102B1
:100AF00041FA03FC10EB0C00C3F1200301FA03F1EF
:100B000000F0004302D5494260EB4000B0F5000F11
:100B100013D3B0F1807F06D340084FEA310102F1D0
:100B20000102FE2A51D2B1F1004F40EBC25008BF82
:100B300020F0010040EA03007047490040EB00004C
:100B4000013A28BFB0F5000FEDD2B0FA80FCACF14D
:100B5000080CB2EB0C0200FA0CF0AABF00EBC2507A
:100B600052421843BCBFD0401843704792F0000F68
:100B700081F4000106BF80F400000132013BB5E7BB
:100B80004FEA41037FEA226C18BF7FEA236C21D031
:100B900092EA030F04D092F0000F08BF0846704796
:100BA00090EA010F1CBF0020704712F07F4F04D164
:100BB000400028BF40F00040704712F100723CBF77
:100BC00000F50000704700F0004343F0FE4040F4A1
:100BD000000070477FEA226216BF08467FEA23635F
:100BE0000146420206BF5FEA412390EA010F40F44A
:100BF000800070474FF0000304E000BF10F0004396
:100C000048BF40425FEA000C08BF704743F096437C
:100C100001464FF000001CE050EA010208BF704797
:100C20004FF000030AE000BF50EA010208BF70471E
:100C300011F0004302D5404261EB41015FEA010C33
:100C400002BF84460146002043F0B64308BFA3F12B
:100C50008053A3F50003BCFA8CF2083AA3EBC2530D
:100C600010DB01FA02FC634400FA02FCC2F120022C
:100C7000BCF1004F20FA02F243EB020008BF20F063
:100C80000100704702F1200201FA02FCC2F12002C9
:100C900050EA4C0021FA02F243EB020008BF20EABE
:100CA000DC7070474FF0FF0C1CEAD0521EBF1CEAEC
:100CB000D15392EA0C0F93EA0C0F6FD01A4480EADA
:100CC000010C400218BF5FEA41211ED04FF00063C3
:100CD00043EA501043EA5111A0FB01310CF00040EF
:100CE000B1F5000F3EBF490041EAD3715B0040EA15
:100CF000010062F17F02FD2A1DD8B3F1004F40EBE5
:100D0000C25008BF20F00100704790F0000F0CF0B7
:100D1000004C08BF49024CEA502040EA51207F3A7B
:100D2000C2BFD2F1FF0340EAC250704740F4000056
:100D30004FF00003013A5DDC12F1190FDCBF00F047
:100D400000407047C2F10002410021FA02F1C2F1F5
:100D5000200200FA02FC5FEA310040F1000053EA91
:100D60004C0308BF20EADC70704792F0000F00F0DF
:100D7000004C02BF400010F4000F013AF9D040EAE5
:100D80000C0093F0000F01F0004C02BF490011F479
:100D9000000F013BF9D041EA0C018FE70CEAD15377
:100DA00092EA0C0F18BF93EA0C0F0AD030F0004CF7
:100DB00018BF31F0004CD8D180EA010000F00040AB
:100DC000704790F0000F17BF90F0004F084691F069
:100DD000000F91F0004F14D092EA0C0F01D14202A3
:100DE0000FD193EA0C0F03D14B0218BF084608D16C
:100DF00080EA010000F0004040F0FE4040F40000B6
:100E0000704740F0FE4040F4400070474FF0FF0C48
:100E10001CEAD0521EBF1CEAD15392EA0C0F93EA8F
:100E20000C0F69D0A2EB030280EA010C49024FEAE1
:100E3000402037D04FF0805343EA111143EA10139A
:100E40000CF000408B4238BF5B0042F17D024FF452
:100E5000000C8B4224BF5B1A40EA0C00B3EB510F2D
:100E600024BFA3EB510340EA5C00B3EB910F24BF16
:100E7000A3EB910340EA9C00B3EBD10F24BFA3EB9B
:100E8000D10340EADC001B0118BF5FEA1C1CE0D163
:100E9000FD2A3FF650AF8B4240EBC25008BF20F016
:100EA000010070470CF0004C4CEA50207F32C2BF6A
:100EB000D2F1FF0340EAC250704740F400004FF007
:100EC0000003013A37E792F0000F00F0004C02BF38
:100ED000400010F4000F013AF9D040EA0C0093F002
:100EE000000F01F0004C02BF490011F4000F013B5C
:100EF000F9D041EA0C0195E70CEAD15392EA0C0FC4
:100F000008D142027FF47DAF93EA0C0F7FF470AFFB
:100F1000084676E793EA0C0F04D14B023FF44CAF3E
:100F200008466EE730F0004C18BF31F0004CCAD1D3
:100F300030F000427FF45CAF31F000437FF43CAF0F
:100F40005FE700BF4FF0FF3C06E000BF4FF0010C31
:100F500002E000BF4FF0010C4DF804CD4FEA400213
:100F60004FEA41037FEA226C18BF7FEA236C11D05D
:100F700001B052EA530C18BF90EA010F58BFB2EB10
:100F8000030088BFC81738BF6FEAE17018BF40F090
:100F9000010070477FEA226C02D15FEA402C05D144
:100FA0007FEA236CE4D15FEA412CE1D05DF8040BC9
:100FB000704700BF844608466146FFE70FB5FFF75C
:100FC000C9FF002848BF10F1000F0FBD4DF808ED14
:100FD000FFF7F4FF0CBF012000205DF808FB00BF05
:100FE0004DF808EDFFF7EAFF34BF012000205DF85F
:100FF00008FB00BF4DF808EDFFF7E0FF94BF0120AC
:1010000000205DF808FB00BF4DF808EDFFF7D2FFA8
:1010100094BF012000205DF808FB00BF4DF808EDEB
:10102000FFF7C8FF34BF012000205DF808FB00BFB8
:1010300080B588B000AF07F1100300221A605A6033
:101040009A60DA60244B9B69234A43F01003936152
:10105000214B9B6903F01003FB60FB681E4B9B69EF
:101060001D4A43F0200393611B4B9B6903F020034F
:10107000BB60BB68184B9B69174A43F0040393613C
:10108000154B9B6903F004037B607B68124B9B69E3
:10109000114A43F0080393610F4B9B6903F0080367
:1010A0003B603B6800224FF400510C4801F0D0FB3C
:1010B0004FF400533B6101237B610023BB6102239A
:1010C000FB6107F110031946044801F03DFA00BF27
:1010D0002037BD4680BD00BF001002400010014017
:1010E00080B500AF124B134A1A60114B124A5A6076
:1010F0000F4B00229A600E4B0022DA600C4B4FF42B
:1011000080421A610A4B00225A61094B00229A61FF
:10111000074B0022DA61064B00221A62044801F0F4
:10112000C9FB0346002B01D000F0A7FA00BF80BD29
:10113000F001002000540040801A060080B588B0FD
:1011400000AF786007F1100300221A605A609A60BD
:10115000DA607B681B68154A934223D1144B9B6964
:10116000134A43F008039361114B9B6903F0080392
:10117000FB60FB68C0233B6112237B610323FB619F
:1011800007F1100319460B4801F0DEF9084BDB6943
:10119000074A43F40013D361054BDB6903F40013E2
:1011A000BB60BB6800BF2037BD4680BD0054004017
:1011B00000100240000C0140B0B592B002AF01F047
:1011C00059F800F015FAFFF733FFFFF789FF00F039
:1011D00081FBAD4800F050FC00F024FD142001F02C
:1011E000ABF800F07BFD00230093A84BA84A142124
:1011F000042000F098FF00230093A44BA54A2E2161
:10120000042000F090FF00F075FD3A1D07F108037F
:1012100019469D4800F04EFC0346002B40F0CF815C
:10122000BB684FF083411846FFF7F8FE0346002BDA
:1012300011D0BB6898491846FFF7D2FE0346002B31
:1012400009D000230093914B944A00211E2000F006
:101250006AFF00F04FFDBB6891491846FFF7DEFEBC
:101260000346002B11D0BB688E491846FFF7B8FE25
:101270000346002B09D000230093844B8A4A0021A7
:101280001E2000F050FF00F035FDBB68874918466E
:10129000FFF7C4FE0346002B11D0BB6884491846F3
:1012A000FFF79EFE0346002B09D000230093774BE7
:1012B000804A00211E2000F036FF00F01BFDBB68B5
:1012C0007B491846FFF7AAFE0346002B11D0BB68E6
:1012D00079491846FFF784FE0346002B09D0002306
:1012E00000936A4B754A00211E2000F01CFF00F09D
:1012F00001FDBB6870491846FFF790FE0346002BBE
:1013000009D000230093614B6D4A00211E2000F09C
:101310000AFF00F0EFFCBB686A491846FFF77EFE43
:101320000346002B11D0BB6867491846FFF758FEEB
:101330000346002B09D000230093544B634A00213D
:101340001E2000F0F0FE00F0D5FCBB686049184696
:10135000FFF764FE0346002B11D0BB685D491846B9
:10136000FFF73EFE0346002B09D000230093474BB6
:10137000594A00211E2000F0D6FE00F0BBFCBB68DD
:1013800053491846FFF72CFE0346002B09D00023D3
:1013900000933E4B514A00211E2000F0C4FE00F095
:1013A000A9FC7B684E491846FFF738FE0346002B20
:1013B00011D07B684B491846FFF712FE0346002BFD
:1013C00009D000230093314B474A0021412000F00F
:1013D000AAFE00F08FFC7B6842491846FFF71EFE0C
:1013E0000346002B11D07B6840491846FFF7F8FDF3
:1013F0000346002B09D000230093244B3C4A0021D4
:10140000412000F090FE00F075FC7B6837491846DB
:10141000FFF704FE0346002B11D07B6835491846C0
:10142000FFF7DEFD0346002B09D000230093174B86
:10143000314A0021412000F076FE00F05BFC7B6821
:101440002C491846FFF7EAFD0346002B09D000237C
:1014500000930E4B294A0021412000F064FE00F069
:1014600049FC7B681E491846FFF7BAFD0346002B6E
:1014700048D000230093054B214A0021412000F071
:1014800052FE00F037FC3DE0F0010020E883000848
:1014900060720008687200080000A04170720008C5
:1014A0000000A8410000C841787200080000D04147
:1014B0000000F8418072000800000C4288720008A9
:1014C00090720008000020410000704198720008EE
:1014D0000000A04000001041A0720008A87200089F
:1014E0000000F04100004842B07200080000704265
:1014F000B872000800008C42C0720008C872000870
:10150000D0720008BB681846FEF78EFF02460B46F5
:1015100007F10C002F4903F053FD07F10C020023E3
:1015200000932D4B1121292000F0FDFD0023009395
:10153000294B2A4A1721602000F0F5FD7B681846E8
:10154000FEF772FF02460B4607F10C00214903F03B
:1015500037FD07F10C02002300931F4B2A2129209D
:1015600000F0E1FD002300931B4B1D4A2A2160205F
:1015700000F0D9FD00F0BEFBBB681846FEF754FF33
:1015800004460D467B681846FEF74EFF02460B46A2
:1015900007F10C00CDE9002322462B46114903F048
:1015A0000FFD07F10C031846FEF7D2FD03469AB271
:1015B00007F10C014FF4FA730B4802F00FFE4FF4E1
:1015C000FA6000F0B9FE4FF40051084801F058F9F4
:1015D0001BE600BFD8720008E8830008E07200082C
:1015E000E4720008E8720008480200200010014080
:1015F00080B590B000AF07F11803282200211846EB
:1016000003F051FD3B1D00221A605A609A60DA60B7
:101610001A610123BB614FF48033FB6100233B62FD
:101620000123BB6202237B634FF48033BB634FF41F
:10163000E013FB6307F11803184602F06FF9034645
:10164000002B01D000F019F80F237B600223BB6050
:101650000023FB604FF480633B6100237B613B1DF3
:101660000221184602F0DCFB0346002B01D000F0FB
:1016700004F800BF4037BD4680BD80B400AF72B6ED
:1016800000BF00BFFDE7000080B485B000AF154B80
:101690009B69144A43F001039361124B9B6903F069
:1016A0000103BB60BB680F4BDB690E4A43F08053FC
:1016B000D3610C4BDB6903F080537B607B680A4B82
:1016C0005B68FB60FB6823F0E063FB60FB6843F052
:1016D0000073FB60044AFB68536000BF1437BD46CB
:1016E00080BC7047001002400000014080B400AF91
:1016F00000BFFDE780B400AF00BFFDE780B400AFDE
:1017000000BFFDE780B400AF00BFFDE780B400AFCD
:1017100000BFFDE780B400AF00BFBD4680BC70478E
:1017200080B400AF00BFBD4680BC704780B400AF3E
:1017300000BFBD4680BC704780B500AF00F0E0FD43
:1017400000BF80BD80B400AF01231846BD4680BCF9
:10175000704780B582B000AF7860396003F0F6FC66
:10176000034616221A604FF0FF3318460837BD466D
:1017700080BD80B582B000AF78604FF0FF317868EF
:10178000FFF7E7FF00BFFDE780B586B000AFF86068
:10179000B9607A6000237B610AE0AFF30080014604
:1017A000BB685A1CBA60CAB21A707B6901337B618C
:1017B0007A697B689A42F0DB7B6818461837BD4629
:1017C00080BD80B586B000AFF860B9607A60002354
:1017D0007B6109E0BB685A1CBA601B781846AFF3FE
:1017E00000807B6901337B617A697B689A42F1DB17
:1017F0007B6818461837BD4680BD80B483B000AF03
:1018000078604FF0FF3318460C37BD4680BC7047F8
:1018100080B483B000AF786039603B684FF4005209
:101820005A60002318460C37BD4680BC704780B410
:1018300083B000AF7860012318460C37BD4680BCEA
:10184000704780B485B000AFF860B9607A6000235B
:1018500018461437BD4680BC7047000080B586B07E
:1018600000AF7860144A154BD31A7B617B693B61EA
:10187000134B1B68002B02D1114B124A1A60104BFC
:101880001A687B6813443A699A4207D203F05EFCF7
:1018900003460C221A604FF0FF3309E0084B1B6827
:1018A000FB60074B1A687B681344054A1360FB68AA
:1018B00018461837BD4680BD0050002000040000C7
:1018C000440200206808002080B400AF00BFBD467D
:1018D00080BC704780B500AF114B124A1A60104BA4
:1018E0004FF4E1325A600E4B00229A600C4B0022FA
:1018F000DA600B4B00221A61094B0C225A61084B2B
:1019000000229A61064B0022DA61054802F016FCBB
:101910000346002B01D0FFF7B0FE00BF80BD00BF23
:10192000480200200038014080B588B000AF7860E0
:1019300007F1100300221A605A609A60DA607B682F
:101940001B681C4A934231D11B4B9B691A4A43F4D2
:1019500080439361184B9B6903F48043FB60FB68F1
:10196000154B9B69144A43F004039361124B9B6926
:1019700003F00403BB60BB684FF400733B610223B8
:101980007B610323FB6107F1100319460B4800F04C
:10199000DBFD4FF480633B6100237B610023BB616F
:1019A00007F110031946054800F0CEFD00BF2037AF
:1019B000BD4680BD003801400010024000080140D3
:1019C000FFF782FF0B480C490C4A002302E0D45871
:1019D000C4500433C4188C42F9D3094A094C00237B
:1019E00001E013600432A242FBD303F0B5FBFFF722
:1019F000E3FB704700000020D40100208887000826
:101A0000D401002068080020FEE780B485B000AF54
:101A100078600B46FB70FF23FB730023BB7321E050
:101A2000BB7B7A6813441A78FB7B5340FB73082313
:101A30007B7311E097F90F30002B07DAFB7B5B001B
:101A40005BB283F031035BB2FB7302E0FB7B5B00B4
:101A5000FB737B7B013B7B737B7B002BEAD1BB7BE6
:101A60000133BB73BA7BFB789A42D9D3FB7B184610
:101A70001437BD4680BC704780B586B002AF786031
:101A800043F22263BB8107F10C026423009302231B
:101A90008821786801F052F80346002B01D0012319
:101AA00003E0142000F048FC002318461037BD4620
:101AB00080BD000080B58CB002AFF860B9607A607C
:101AC000E023BB8207F114026423009302238821E0
:101AD000F86801F033F80346002B01D001236DE0D4
:101AE0000F2000F029FC07F118026423009306235D
:101AF0008821F86801F020F90346002B01D001236A
:101B00005CE000237B621CE07A6A13465B001344AE
:101B100007F11802134402211846FFF776FF034627
:101B200019467A6A13465B001344023328333B4458
:101B300013F8103C994201D002233FE07B6A013345
:101B40007B627B6A012BDFDD3B7E1B021AB27B7E50
:101B50001BB213431BB27B84FB7E1B021AB23B7F7A
:101B60001BB213431BB23B847B8C1846FFF742F831
:101B7000034614491846FFF795F8034612491846DC
:101B8000FFF744F9034611491846FEF781FF034663
:101B90001A46BB681A603B8C1846FFF72BF80346C1
:101BA0000B491846FFF77EF8034607491846FFF72A
:101BB0002DF903461A467B681A6000231846283719
:101BC000BD4680BD00002F4300FF7F470000344228
:101BD0000000C84280B584B002AF78600B46FB704D
:101BE000FB789BB24FF0FF3200927A68782103486D
:101BF00000F0A4FF00BF0837BD4680BDF001002003
:101C000080B582B000AF0346FB71054AFB79537083
:101C100002210348FFF7DEFF00BF0837BD4680BD45
:101C20009006002080B500AFAE20FFF7E9FF20202E
:101C3000FFF7E6FF1020FFF7E3FFB020FFF7E0FF1C
:101C4000C820FFF7DDFF0020FFF7DAFF1020FFF7C5
:101C5000D7FF4020FFF7D4FF8120FFF7D1FFDF201F
:101C6000FFF7CEFFA120FFF7CBFFA620FFF7C8FFAD
:101C7000A820FFF7C5FF3F20FFF7C2FFA420FFF712
:101C8000BFFFD320FFF7BCFF0020FFF7B9FFD5202F
:101C9000FFF7B6FFF020FFF7B3FFD920FFF7B0FF43
:101CA0002220FFF7ADFFDA20FFF7AAFF1220FFF78F
:101CB000A7FFDB20FFF7A4FF2020FFF7A1FF8D2067
:101CC000FFF79EFF1420FFF79BFF00F007F800F0DE
:101CD00011F8AF20FFF794FF00BF80BD80B500AFC3
:101CE0004FF480620021024803F0DDF900BF80BD9F
:101CF0009002002080B582B000AF154B40221A70D0
:101D00000023FB711BE0FB79503BDBB21846FFF769
:101D100077FF0020FFF774FF1020FFF771FF0D48D9
:101D2000FB79DB010C4A13448022194603F049FA7F
:101D300081210748FFF74EFFFB790133FB71FB79E7
:101D4000072BE0D900BF00BF0837BD4680BD00BFEC
:101D500094060020950600209002002090B482B0E6
:101D600000AF0446084611461A462346FB71034657
:101D7000BB710B467B7113463B71FB79072B60D817
:101D800097F90630002B5CDB3B7D002B02D07B7982
:101D9000DB437B713B7C0133FF2202FA03F35AB22F
:101DA00097F9053013435AB23B79C3F10803FF2179
:101DB00041FA03F35BB213435BB2DAB2234B1A70FE
:101DC000FA79BB792249D2010A44134418781F4B8F
:101DD0001978FA79BB790140C8B21D49D2010A4489
:101DE000134402461A703B7C0133FF2202FA03F3CC
:101DF0005BB2DB435AB297F9053013405AB23B79D4
:101E0000C3F10803FF2141FA03F35BB2DB435BB28A
:101E100013405BB2DAB20D4B1A70FA79BB790C49F8
:101E2000D2010A4413441878084B1978FA79BB791F
:101E30000143C8B20649D2010A44134402461A704B
:101E400000E000BF0837BD4690BC70471507002072
:101E500090020020B0B586B002AF04460846114695
:101E60001A462346FB710346BB710B467B71134632
:101E70003B71BB79DB08FB73BB7903F00703BB73D2
:101E8000BA7B3B791344082B29DD7A79BB7B02FAB4
:101E900003F3DAB2BC7BF979F87B97F82030019331
:101EA000072300932346FFF759FFFB7B0133D8B28A
:101EB0007A79BB7BC3F1080342FA03F3DCB23A79C7
:101EC000BB7B1344DBB2093BDBB2F97997F82020E6
:101ED0000192009300232246FFF740FF15E07A7934
:101EE000BB7B02FA03F3DCB2BA7B3B791344DBB26F
:101EF000013BDBB2BD7BF979F87B97F8202001929A
:101F000000932B462246FFF729FF00BF1037BD463E
:101F1000B0BD90B587B002AF0446084611461A46D8
:101F20002346FB710346BB710B467B7113463B7125
:101F3000BB79DB08FB73BB7903F00703BB737A79CA
:101F4000BB7B02FA03F3DAB2BC7BF979F87B3B790D
:101F50000193072300932346FFF700FFBB7B002B71
:101F600014D0FB7B0133D8B27A79BB7BC3F1080371
:101F700042FA03F3DCB2BB7B013BDBB2F9793A797D
:101F80000192009300232246FFF7E8FE00BF1437BA
:101F9000BD4690BD90B587B002AF3A601A46034681
:101FA000FB710B46BB7113467B7197F82030DB0841
:101FB0003B7397F8203003F00703FB720023FB7399
:101FC00025E00023BB731BE0FA79FB7B1344D8B2F6
:101FD000BB7BDB00DAB2BB791344DCB2FA7BBB7BA0
:101FE000797901FB03F313441A463B6813441A78CA
:101FF00097F824302146FFF78CFFBB7B0133BB737E
:10200000BA7B3B7B9A42DFD3FB7B0133FB73FA7BCA
:102010007B799A42D5D3FB7A002B28D07B799BB26F
:102020003A7B92B202FB03F33B8100237B731AE0FD
:10203000FA797B7B1344D8B23B7BDB00DAB2BB7905
:102040001344D9B23A897B7B13441A463B68134444
:102050001A78FC7A97F8243000932346FFF7FAFEAB
:102060007B7B01337B737A7B7B799A42E0D300BF21
:102070001437BD4690BDB0B584B002AF3B60034697
:10208000FB710B46BB7113467B713B685A687B79C9
:10209000A3F120013B681B780733002B00DA0733DC
:1020A000DB1018463B685B7800FB03F301FB03F38E
:1020B000D4183B685D783B681B78B979F8793A7E2B
:1020C000019200932B462246FFF764FF00BF0837BA
:1020D000BD46B0BD80B483B000AF78607B681B782C
:1020E0005BB2002B01DB012318E07B681B7803F057
:1020F000E003C02B01D1022310E07B681B7803F0C2
:10210000F003E02B01D1032308E07B681B7803F088
:10211000F803F02B01D1042300E0002318460C370C
:10212000BD4680BC7047B0B58AB002AFBA607B6074
:102130000346FB730B46BB730023FB837B681B7852
:102140000733002B00DA0733DB10DBB27A685278F2
:1021500002FB03F3DBB20433FB767DE000237B77E5
:10216000FB8BBA6813441846FFF7B4FF0346BB76EF
:10217000BB7E002B78D000233B7732E07B685B6826
:102180003A7FF97E01FB02F213447B61FB8BBA6854
:102190001344BA7E7969184602F075FF0346002B96
:1021A0001CD17B691C1D7B685D787B681B78B97BC3
:1021B000F87B97F83020019200932B462246FFF7D8
:1021C000E9FE7B685A78FB7B1344FB73BB7E9AB2B3
:1021D000FB8B1344FB8301237B7707E03B7F0133B9
:1021E0003B777B681B7A3A7F9A42C7D37B7F002B71
:1021F00032D1BB7E012B19D1FB8BBA6813441A78FC
:102200007B68DC68B97BF87B97F830300093234615
:10221000FFF731FF7B68DB685A78FB7B1344FB7365
:10222000BB7E9AB2FB8B1344FB8315E07B68DA68B4
:10223000B97BF87B97F83030009313462022FFF7E4
:102240001AFF7B68DB685A78FB7B1344FB73BB7E09
:102250009AB2FB8B1344FB83FB8BBA6813441B7845
:10226000002B7FF47BAF00E000BF00BF2037BD46EE
:10227000B0BD000080B500AF084B1B68074A43F0B3
:1022800010031360032000F02BF90F2000F008F872
:10229000FFF7FAF90023184680BD00BF0020024076
:1022A00080B582B000AF7860124B1A68124B1B7871
:1022B00019464FF47A73B3FBF1F3B2FBF3F318460C
:1022C00000F035F90346002B01D001230EE07B68B6
:1022D0000F2B0AD8002279684FF0FF3000F00BF97D
:1022E000064A7B681360002300E001231846083784
:1022F000BD4680BD00000020080000200400002032
:1023000080B400AF054B1B781A46054B1B6813447D
:10231000034A136000BFBD4680BC70470800002020
:102320001807002080B400AF024B1B681846BD465A
:1023300080BC70471807002080B584B000AF78607B
:10234000FFF7F0FFB8607B68FB60FB68B3F1FF3F0D
:1023500005D00A4B1B781A46FB681344FB6000BF8C
:10236000FFF7E0FF0246BB68D31AFA689A42F7D833
:1023700000BF00BF1037BD4680BD00BF0800002071
:1023800080B485B000AF78607B6803F00703FB6022
:102390000C4BDB68BB60BA684FF6FF031340BB60B1
:1023A000FB681A02BB68134343F0BF6343F4003376
:1023B000BB60044ABB68D36000BF1437BD4680BC15
:1023C000704700BF00ED00E080B400AF044BDB6855
:1023D0001B0A03F007031846BD4680BC704700BFC8
:1023E00000ED00E080B483B000AF03463960FB71BC
:1023F00097F90730002B0ADB3B68DAB20C4997F9F2
:1024000007301201D2B20B4483F800230AE03B6884
:10241000DAB20849FB7903F00F03043B1201D2B290
:102420000B441A7600BF0C37BD4680BC704700BF16
:1024300000E100E000ED00E080B489B000AFF8609A
:10244000B9607A60FB6803F00703FB61FB69C3F1C5
:102450000703042B28BF0423BB61FB690433062B4D
:1024600002D9FB69033B00E000237B614FF0FF32A0
:10247000BB6902FA03F3DA43BB681A407B699A40EE
:102480004FF0FF317B6901FA03F3D9437B680B40BE
:10249000134318462437BD4680BC704780B582B0D0
:1024A00000AF78607B68013BB3F1807F01D30123EB
:1024B0000FE00A4A7B68013B53600F214FF0FF3069
:1024C000FFF790FF054B00229A60044B07221A6029
:1024D000002318460837BD4680BD00BF10E000E06D
:1024E00080B582B000AF78607868FFF749FF00BF21
:1024F0000837BD4680BD80B586B000AF0346B960E1
:102500007A60FB7300237B61FFF75EFF78617A6876
:10251000B9687869FFF790FF024697F90F301146C6
:102520001846FFF75FFF00BF1837BD4680BD80B576
:1025300082B000AF78607868FFF7B0FF03461846B6
:102540000837BD4680BD000080B48BB000AF786016
:10255000396000237B6200233B6269E101227B6AD0
:1025600002FA03F3FB613B681B68FA691340BB6125
:10257000BA69FB699A4240F058813B685B689A4AA5
:1025800093425ED0984A934275D8984A934258D065
:10259000964A93426FD8964A934252D0944A9342B5
:1025A00069D8944A93424CD0924A934263D8924A53
:1025B000934246D0904A93425DD8122B2AD8122BD0
:1025C00059D801A252F823F0432600081D2600081E
:1025D0002F260008712600087726000877260008B5
:1025E0007726000877260008772600087726000857
:1025F0007726000877260008772600087726000847
:102600007726000877260008772600082526000888
:1026100039260008794A934213D02CE03B68DB68E6
:102620003B6229E03B68DB6804333B6224E03B68A3
:10263000DB6808333B621FE03B68DB680C333B62BE
:102640001AE03B689B68002B02D104233B6213E035
:102650003B689B68012B05D108233B627B68FA69C4
:102660001A6109E008233B627B68FA695A6103E05A
:1026700000233B6200E000BFBB69FF2B01D87B68F1
:1026800001E07B6804337B61BB69FF2B02D87B6A66
:102690009B0002E07B6A083B9B003B617B691A68F8
:1026A0000F213B6901FA03F3DB431A40396A3B69A6
:1026B00001FA03F31A437B691A603B685B6803F015
:1026C0008053002B00F0B1804D4B9B694C4A43F086
:1026D000010393614A4B9B6903F00103BB60BB6834
:1026E000484A7B6A9B08023352F82330FB607B6ABE
:1026F00003F003039B000F2202FA03F3DB43FA68A3
:102700001340FB607B68404A934213D07B683F4A8A
:1027100093420DD07B683E4A934207D07B683D4A86
:10272000934201D1032306E0042304E0022302E0E4
:10273000012300E000237A6A02F003029200934032
:10274000FA681343FB602F497B6A9B080233FA68DF
:1027500041F823203B685B6803F48013002B06D00C
:102760002D4B9A682C49BB6913438B6006E02A4BBA
:102770009A68BB69DB43284913408B603B685B6800
:1027800003F40013002B06D0234BDA682249BB69FF
:102790001343CB6006E0204BDA68BB69DB431E497C
:1027A0001340CB603B685B6803F40033002B06D01A
:1027B000194B5A681849BB6913434B6006E0164B26
:1027C0005A68BB69DB43144913404B603B685B6844
:1027D00003F48033002B21D00F4B1A680E49BB69DC
:1027E00013430B6021E000BF0000321000003110E5
:1027F0000000221000002110000012100000111033
:10280000001002400000014000080140000C01409F
:102810000010014000140140000401400B4B1A68F5
:10282000BB69DB43094913400B607B6A01337B6260
:102830003B681A687B6A22FA03F3002B7FF48EAEA2
:1028400000BF00BF2C37BD4680BC7047000401406C
:1028500080B483B000AF78600B467B8013467B70FA
:102860007B78002B03D07A887B681A6103E07B8831
:102870001A047B681A6100BF0C37BD4680BC7047E4
:1028800080B485B000AF78600B467B807B68DB68E6
:10289000FB607A88FB6813401A04FB68D9437B8885
:1028A0000B401A437B681A6100BF1437BD4680BCD9
:1028B0007047000080B584B000AF78607B68002B63
:1028C00001D101232BE17B6893F83D30DBB2002B73
:1028D00006D17B68002283F83C207868FEF72EFC46
:1028E0007B68242283F83D207B681B681A687B681C
:1028F0001B6822F001021A607B681B681A687B68FB
:102900001B6842F400421A607B681B681A687B6887
:102910001B6822F400421A6001F0CAFBF8607B6871
:102920005B68814A934207D8FB68804A934294BF10
:1029300001230023DBB206E0FB687D4A934294BF8B
:1029400001230023DBB2002B01D00123E7E0FB6869
:10295000784AA2FB03239B0CBB607B681B685B6807
:1029600023F03F017B681B68BA680A435A607B68A2
:102970001B681B6A23F03F017B685B686A4A9342CD
:1029800002D8BB68013309E0BB684FF4967202FBC2
:1029900003F3694AA2FB03239B0901337A68126897
:1029A0000B4313627B681B68DB6923F44F4222F000
:1029B000FF027B685B685C498B4219D8FB68591E33
:1029C0007B685B685B00B1FBF3F3591C40F6FC735A
:1029D0000B40002B0AD0FB68591E7B685B685B00CC
:1029E000B1FBF3F30133C3F30B0351E004234FE0D6
:1029F0007B689B68002B11D1FB68581E7B68596867
:102A00000B465B000B44B0FBF3F30133C3F30B0342
:102A1000002B0CBF01230023DBB212E0FB68581E21
:102A20007B6859680B469B000B4499000B44B0FB34
:102A3000F3F30133C3F30B03002B0CBF012300237B
:102A4000DBB2002B01D0012322E07B689B68002BC6
:102A50000ED1FB68581E7B6859680B465B000B441F
:102A6000B0FBF3F30133C3F30B0343F400430FE074
:102A7000FB68581E7B6859680B469B000B44990005
:102A80000B44B0FBF3F30133C3F30B0343F44043B4
:102A9000796809681343CB617B681B681B6823F066
:102AA000C0017B68DA697B681B6A1A437B681B6814
:102AB0000A431A607B681B689B6823F4034323F076
:102AC000FF037A6811697A68D26811437A681268DC
:102AD0000B4393607B681B68DB6823F0FF017B6816
:102AE0005A697B689B691A437B681B680A43DA60F2
:102AF0007B681B681A687B681B6842F001021A60D9
:102B00007B6800221A647B68202283F83D207B6862
:102B100000221A637B68002283F83E2000231846B7
:102B20001037BD4680BD00BFA08601007F841E0017
:102B3000FF083D0083DE1B43D34D621080B588B093
:102B400002AFF8607A601A460B467B8113463B81E0
:102B5000FFF7E8FB7861FB6893F83D30DBB2202B90
:102B600040F0E0807B690093192301227049F868E6
:102B700000F09EFC0346002B01D00223D3E0FB684B
:102B800093F83C30012B01D10223CCE0FB680122F9
:102B900083F83C20FB681B681B6803F00103012BD2
:102BA00007D0FB681B681A68FB681B6842F00102CB
:102BB0001A60FB681B681A68FB681B6822F40062D5
:102BC0001A60FB68212283F83D20FB68102283F8FD
:102BD0003E20FB6800221A64FB687A685A62FB6830
:102BE0003A895A85FB685B8D9AB2FB681A85FB6847
:102BF000504ADA6279897B693A6AF86800F008FB22
:102C00000346002B01D001238DE000233B61FB68CC
:102C10001B685B693B61FB681B689B693B613B69A7
:102C200066E07A69396AF86800F05CFD0346002BBB
:102C30000DD0FB681B6C042B07D1FB681B681A685E
:102C4000FB681B6842F400721A6001236BE0FB68AA
:102C50005B6A1A78FB681B681A61FB685B6A5A1C1E
:102C6000FB685A62FB685B8D9BB2013B9AB2FB68C2
:102C70005A85FB681B8D013B9AB2FB681A85FB687D
:102C80001B685B6903F00403042B1BD1FB681B8DDD
:102C9000002B17D0FB685B6A1A78FB681B681A6107
:102CA000FB685B6A5A1CFB685A62FB685B8D9BB2CF
:102CB000013B9AB2FB685A85FB681B8D013B9AB2B7
:102CC000FB681A857A69396AF86800F053FD034693
:102CD000002B0DD0FB681B6C042B07D1FB681B6815
:102CE0001A68FB681B6842F400721A6001231AE03C
:102CF000FB681B8D002B94D1FB681B681A68FB686E
:102D00001B6842F400721A60FB68202283F83D20A1
:102D1000FB68002283F83E20FB68002283F83C20F9
:102D2000002300E0022318461837BD4680BD00BFCF
:102D3000020010000000FFFF80B58CB002AFF86009
:102D40007A601A460B467B8113463B8100233B6227
:102D5000FFF7E8FA7862FB6893F83D30DBB2202B8E
:102D600040F04B827B6A0093192301227F49F86867
:102D700000F09EFB0346002B01D002233EE2FB68DD
:102D800093F83C30012B01D1022337E2FB6801228A
:102D900083F83C20FB681B681B6803F00103012BD0
:102DA00007D0FB681B681A68FB681B6842F00102C9
:102DB0001A60FB681B681A68FB681B6822F40062D3
:102DC0001A60FB68222283F83D20FB68102283F8FA
:102DD0003E20FB6800221A64FB687A685A62FB682E
:102DE0003A895A85FB685B8D9AB2FB681A85FB6845
:102DF0005F4ADA6279897B6A3A6BF86800F08AFA8E
:102E00000346002B01D00123F8E1FB681B8D002B4A
:102E100013D10023FB61FB681B685B69FB61FB68E6
:102E20001B689B69FB61FB69FB681B681A68FB6890
:102E30001B6842F400721A60CCE1FB681B8D012B09
:102E40001ED1FB681B681A68FB681B6822F480624D
:102E50001A6072B600BF0023BB61FB681B685B6928
:102E6000BB61FB681B689B69BB61BB69FB681B6836
:102E70001A68FB681B6842F400721A6062B635E09B
:102E8000FB681B8D022B1ED1FB681B681A68FB6850
:102E90001B6842F400621A6072B600BF00237B61B7
:102EA000FB681B685B697B61FB681B689B697B61D6
:102EB0007B69FB681B681A68FB681B6822F48062E8
:102EC0001A6062B612E0FB681B681A68FB681B6830
:102ED00042F480621A6000233B61FB681B685B69F7
:102EE0003B61FB681B689B693B613B6972E1FB6866
:102EF0001B8D032B00F21F81FB681B8D012B23D13F
:102F00007A6A396BF86800F07DFC0346002B01D02B
:102F1000012373E1FB681B681A69FB685B6AD2B224
:102F20001A70FB685B6A5A1CFB685A62FB681B8D4F
:102F3000013B9AB2FB681A85FB685B8D9BB2013B33
:102F40009AB2FB685A8545E1FB681B8D022B52D172
:102F50007B6A00933B6B00220649F86800F0A8FAF0
:102F60000346002B08D0012348E100BF02001000F7
:102F70000000FFFF0400010072B600BFFB681B6881
:102F80001A68FB681B6842F400721A60FB681B68D1
:102F90001A69FB685B6AD2B21A70FB685B6A5A1CDA
:102FA000FB685A62FB681B8D013B9AB2FB681A856D
:102FB000FB685B8D9BB2013B9AB2FB685A8562B697
:102FC00000BFFB681B681A69FB685B6AD2B21A70A3
:102FD000FB685B6A5A1CFB685A62FB681B8D013BED
:102FE0009AB2FB681A85FB685B8D9BB2013B9AB273
:102FF000FB685A85EEE07B6A00933B6B00228149B7
:10300000F86800F055FA0346002B01D00123F5E0E3
:10301000FB681B681A68FB681B6822F480621A60F0
:1030200072B600BFFB681B681A69FB685B6AD2B2A4
:103030001A70FB685B6A5A1CFB685A62FB681B8D3E
:10304000013B9AB2FB681A85FB685B8D9BB2013B22
:103050009AB2FB685A856C4B1B68DB086B4AA2FB73
:1030600003231A0A13469B001344DA00D31A3B6267
:103070003B6A013B3B623B6A002B18D1FB68002294
:103080001A63FB68202283F83D20FB68002283F846
:103090003E20FB681B6C43F02002FB681A6462B69A
:1030A00000BFFB68002283F83C200123A6E0FB68F8
:1030B0001B685B6903F00403042BD9D1FB681B6810
:1030C0001A68FB681B6842F400721A60FB681B6890
:1030D0001A69FB685B6AD2B21A70FB685B6A5A1C99
:1030E000FB685A62FB681B8D013B9AB2FB681A852C
:1030F000FB685B8D9BB2013B9AB2FB685A8562B656
:1031000000BFFB681B681A69FB685B6AD2B21A7061
:10311000FB685B6A5A1CFB685A62FB681B8D013BAB
:103120009AB2FB681A85FB685B8D9BB2013B9AB231
:10313000FB685A854EE07A6A396BF86800F062FBEA
:103140000346002B01D0012358E0FB681B681A6975
:10315000FB685B6AD2B21A70FB685B6A5A1CFB6838
:103160005A62FB681B8D013B9AB2FB681A85FB68AB
:103170005B8D9BB2013B9AB2FB685A85FB681B686A
:103180005B6903F00403042B24D1FB681B8D032B24
:1031900007D1FB681B681A68FB681B6822F4806211
:1031A0001A60FB681B681A69FB685B6AD2B21A7006
:1031B000FB685B6A5A1CFB685A62FB681B8D013B0B
:1031C0009AB2FB681A85FB685B8D9BB2013B9AB291
:1031D000FB685A85FB681B8D002B7FF488AEFB686B
:1031E000202283F83D20FB68002283F83E20FB6804
:1031F000002283F83C20002300E0022318462837F1
:10320000BD4680BD040001000000002089B5F8140F
:1032100080B588B002AFF8607A603B600B467B8176
:10322000FB68DB6A7B617B69082B06D07B69012B1D
:1032300003D07B6913F5803F08D1FB681B681A68CF
:10324000FB681B6842F480721A600BE0FB681B6B22
:10325000122B07D1FB681B681A68FB681B6842F4D5
:1032600080721A603B6800937B6800224FF0011166
:10327000F86800F01DF90346002B0DD0FB681B68B1
:103280001B6803F48073B3F5807F03D1FB684FF4B0
:1032900000721A64032335E0FB681B69B3F5804FA5
:1032A00008D17B89DBB21A46FB681B6802F0FE027C
:1032B0001A611BE07B89DB11DBB203F00603DBB292
:1032C00063F00F03DAB2FB681B681A613B687A6827
:1032D0000E49F86800F066F90346002B01D001237F
:1032E00010E07B89DAB2FB681B681A613B687A6878
:1032F0000749F86800F056F90346002B01D0012376
:1033000000E0002318461837BD4680BD08000100C4
:103310000200010080B588B002AFF8607A603B60BF
:103320000B467B81FB68DB6A7B61FB681B681A6864
:10333000FB681B6842F480621A607B69082B06D028
:103340007B69012B03D07B6913F5803F08D1FB68B3
:103350001B681A68FB681B6842F480721A600BE0F5
:10336000FB681B6B112B07D1FB681B681A68FB6895
:103370001B6842F480721A603B6800937B680022ED
:103380004FF00111F86800F093F80346002B0DD0C0
:10339000FB681B681B6803F48073B3F5807F03D15F
:1033A000FB684FF400721A64032379E0FB681B6921
:1033B000B3F5804F08D17B89DBB243F00103DAB269
:1033C000FB681B681A615FE07B89DB11DBB203F0ED
:1033D0000603DBB263F00F03DAB2FB681B681A6105
:1033E0003B687A683049F86800F0DCF80346002B47
:1033F00001D0012354E07B89DAB2FB681B681A61B3
:103400003B687A682949F86800F0CCF80346002B3D
:1034100001D0012344E000233B61FB681B685B692A
:103420003B61FB681B689B693B613B69FB681B68F0
:103430001A68FB681B6842F480721A603B6800934C
:103440007B6800224FF00111F86800F031F8034664
:10345000002B0DD0FB681B681B6803F48073B3F569
:10346000807F03D1FB684FF400721A64032317E0D6
:103470007B89DB11DBB203F00603DBB263F00E03E2
:10348000DAB2FB681B681A613B687A680749F8681A
:1034900000F088F80346002B01D0012300E0002350
:1034A00018461837BD4680BD080001000200010023
:1034B00080B584B000AFF860B9603B601346FB7123
:1034C00048E03B68B3F1FF3F44D0FEF72BFF0246D4
:1034D000BB69D31A3A689A4202D33B68002B39D1B0
:1034E000BB681B0CDBB2012B0DD1FB681B685B6951
:1034F000DA43BB6813409BB2002B0CBF01230023AF
:10350000DBB21A460CE0FB681B689B69DA43BB68B8
:1035100013409BB2002B0CBF01230023DBB21A46E1
:10352000FB799A4216D1FB6800221A63FB682022BD
:1035300083F83D20FB68002283F83E20FB681B6C6B
:1035400043F02002FB681A64FB68002283F83C20E9
:10355000012323E0BB681B0CDBB2012B0DD1FB6800
:103560001B685B69DA43BB6813409BB2002B0CBF3E
:1035700001230023DBB21A460CE0FB681B689B6941
:10358000DA43BB6813409BB2002B0CBF012300231E
:10359000DBB21A46FB799A4293D0002318461037C3
:1035A000BD4680BD80B584B000AFF860B9607A6078
:1035B0003B6071E0FB681B685B6903F48063B3F5F3
:1035C000806F23D1FB681B681A68FB681B6842F494
:1035D00000721A60FB681B686FF480625A61FB68B6
:1035E00000221A63FB68202283F83D20FB6800223A
:1035F00083F83E20FB681B6C43F00402FB681A64EE
:10360000FB68002283F83C20012367E07B68B3F16C
:10361000FF3F41D0FEF786FE02463B68D31A7A6828
:103620009A4202D37B68002B36D1BB681B0CDBB2FD
:10363000012B0CD1FB681B685B69DA43BB68134044
:103640009BB2002B14BF01230023DBB20BE0FB680D
:103650001B689B69DA43BB6813409BB2002B14BF05
:1036600001230023DBB2002B16D0FB6800221A6373
:10367000FB68202283F83D20FB68002283F83E206F
:10368000FB681B6C43F02002FB681A64FB68002295
:1036900083F83C20012321E0BB681B0CDBB2012B2B
:1036A0000CD1FB681B685B69DA43BB6813409BB2B3
:1036B000002B14BF01230023DBB20BE0FB681B6867
:1036C0009B69DA43BB6813409BB2002B14BF0123F4
:1036D0000023DBB2002B7FF46DAF002318461037B8
:1036E000BD4680BD80B584B000AFF860B9607A6037
:1036F00034E0F86800F0E3F80346002B01D0012322
:1037000034E0BB68B3F1FF3F28D0FEF70BFE024662
:103710007B68D31ABA689A4202D3BB68002B1DD1CA
:10372000FB681B685B6903F08003802B16D0FB6885
:1037300000221A63FB68202283F83D20FB680022E8
:1037400083F83E20FB681B6C43F02002FB681A6480
:10375000FB68002283F83C20012307E0FB681B681C
:103760005B6903F08003802BC3D100231846103718
:10377000BD4680BD80B584B000AFF860B9607A60A6
:1037800034E0F86800F09BF80346002B01D00123D9
:1037900034E0BB68B3F1FF3F28D0FEF7C3FD02461B
:1037A0007B68D31ABA689A4202D3BB68002B1DD13A
:1037B000FB681B685B6903F00403042B16D0FB68ED
:1037C00000221A63FB68202283F83D20FB68002258
:1037D00083F83E20FB681B6C43F02002FB681A64F0
:1037E000FB68002283F83C20012307E0FB681B688C
:1037F0005B6903F00403042BC3D100231846103780
:10380000BD4680BD80B584B000AFF860B9607A6015
:1038100049E0FB681B685B6903F01003102B19D1AA
:10382000FB681B686FF010025A61FB6800221A6384
:10383000FB68202283F83D20FB68002283F83E20AD
:10384000FB681A6CFB681A64FB68002283F83C2052
:10385000012330E0FEF766FD02467B68D31ABA68A2
:103860009A4202D3BB68002B1DD1FB681B685B69C1
:1038700003F04003402B16D0FB6800221A63FB685C
:10388000202283F83D20FB68002283F83E20FB685D
:103890001B6C43F02002FB681A64FB68002283F86B
:1038A0003C20012307E0FB681B685B6903F04003D1
:1038B000402BAED1002318461037BD4680BD80B4E2
:1038C00083B000AF78607B681B685B6903F480633A
:1038D000B3F5806F1BD17B681B686FF480625A61FF
:1038E0007B6800221A637B68202283F83D207B6876
:1038F000002283F83E207B681B6C43F004027B6847
:103900001A647B68002283F83C20012300E0002336
:1039100018460C37BD4680BC7047000080B586B0A5
:1039200000AF78607B68002B01D1012372E27B68D5
:103930001B6803F00103002B00F08780924B5B684B
:1039400003F00C03042B0CD08F4B5B6803F00C03CB
:10395000082B12D18C4B5B6803F48033B3F5803FA6
:103960000BD1894B1B6803F40033002B6CD07B68B0
:103970005B68002B68D101234CE27B685B68B3F580
:10398000803F06D1804B1B687F4A43F4803313602D
:103990002EE07B685B68002B0CD17B4B1B687A4A5E
:1039A00023F480331360784B1B68774A23F4802319
:1039B00013601DE07B685B68B3F5A02F0CD1724BE0
:1039C0001B68714A43F4802313606F4B1B686E4A77
:1039D00043F4803313600BE06B4B1B686A4A23F49B
:1039E00080331360684B1B68674A23F4802313609D
:1039F0007B685B68002B13D0FEF794FC386108E00D
:103A0000FEF790FC02463B69D31A642B01D90323CD
:103A100000E25D4B1B6803F40033002BF0D014E090
:103A2000FEF780FC386108E0FEF77CFC02463B694B
:103A3000D31A642B01D90323ECE1534B1B6803F425
:103A40000033002BF0D100E000BF7B681B6803F05F
:103A50000203002B63D04C4B5B6803F00C03002B7C
:103A60000BD0494B5B6803F00C03082B1CD1464B71
:103A70005B6803F48033002B16D1434B1B6803F0C3
:103A80000203002B05D07B681B69012B01D00123A9
:103A9000C0E13D4B1B6823F0F8027B685B69DB00EB
:103AA000394913430B603AE07B681B69002B20D037
:103AB000364B01221A60FEF735FC386108E0FEF74C
:103AC00031FC02463B69D31A022B01D90323A1E141
:103AD0002D4B1B6803F00203002BF0D02A4B1B6810
:103AE00023F0F8027B685B69DB00274913430B6016
:103AF00015E0264B00221A60FEF714FC386108E03E
:103B0000FEF710FC02463B69D31A022B01D90323AE
:103B100080E11D4B1B6803F00203002BF0D17B6892
:103B20001B6803F00803002B3AD07B689B69002BCD
:103B300019D0174B01221A60FEF7F4FB386108E038
:103B4000FEF7F0FB02463B69D31A022B01D903238F
:103B500060E10D4B5B6A03F00203002BF0D0012003
:103B600000F0CEFA1CE00A4B00221A60FEF7DAFBE6
:103B700038610FE0FEF7D6FB02463B69D31A022BF1
:103B800008D9032346E100BF001002400000424272
:103B900080044242924B5B6A03F00203002BE9D19E
:103BA0007B681B6803F00403002B00F0A680002351
:103BB000FB758B4BDB6903F08053002B0DD1884BD9
:103BC000DB69874A43F08053D361854BDB6903F09F
:103BD0008053BB60BB680123FB75824B1B6803F4F9
:103BE0008073002B18D17F4B1B687E4A43F480738F
:103BF0001360FEF797FB386108E0FEF793FB02467F
:103C00003B69D31A642B01D9032303E1754B1B686D
:103C100003F48073002BF0D07B68DB68012B06D1A6
:103C20006F4B1B6A6E4A43F0010313622DE07B6801
:103C3000DB68002B0CD16A4B1B6A694A23F0010335
:103C40001362674B1B6A664A23F0040313621CE08D
:103C50007B68DB68052B0CD1614B1B6A604A43F023
:103C6000040313625E4B1B6A5D4A43F00103136257
:103C70000BE05B4B1B6A5A4A23F001031362584B5B
:103C80001B6A574A23F0040313627B68DB68002B2E
:103C900015D0FEF747FB38610AE0FEF743FB02460A
:103CA0003B69D31A41F28832934201D90323B1E030
:103CB0004B4B1B6A03F00203002BEED014E0FEF71F
:103CC00031FB38610AE0FEF72DFB02463B69D31A4F
:103CD00041F28832934201D903239BE0404B1B6A97
:103CE00003F00203002BEED1FB7D012B05D13C4BF1
:103CF000DB693B4A23F08053D3617B68DB69002B8F
:103D000000F08780364B5B6803F00C03082B61D012
:103D10007B68DB69022B46D1334B00221A60FEF729
:103D200001FB386108E0FEF7FDFA02463B69D31A51
:103D3000022B01D903236DE0294B1B6803F00073AC
:103D4000002BF0D17B681B6AB3F5803F08D1244B70
:103D50005B6823F400327B689B68214913434B6006
:103D60001F4B5B6823F474127B68196A7B685B6A7B
:103D70000B431B4913434B601B4B01221A60FEF798
:103D8000D1FA386108E0FEF7CDFA02463B69D31A52
:103D9000022B01D903233DE0114B1B6803F0007394
:103DA000002BF0D035E0104B00221A60FEF7BAFA73
:103DB000386108E0FEF7B6FA02463B69D31A022BD7
:103DC00001D9032326E0064B1B6803F00073002B88
:103DD000F0D11EE07B68DB69012B07D1012319E0DC
:103DE0000010024000700040600042420B4B5B68D4
:103DF000FB60FB6803F480327B681B6A9A4206D141
:103E0000FB6803F470127B685B6A9A4201D001235D
:103E100000E0002318461837BD4680BD0010024060
:103E200080B584B000AF786039607B68002B01D129
:103E30000123D0E06A4B1B6803F007033A689A42FB
:103E400010D9674B1B6823F0070265493B68134391
:103E50000B60634B1B6803F007033A689A4201D07A
:103E60000123B8E07B681B6803F00203002B20D01D
:103E70007B681B6803F00403002B05D0594B5B687B
:103E8000584A43F4E06353607B681B6803F00803FF
:103E9000002B05D0534B5B68524A43F46053536088
:103EA000504B5B6823F0F0027B689B684D491343DD
:103EB0004B607B681B6803F00103002B40D07B68DC
:103EC0005B68012B07D1474B1B6803F40033002BC1
:103ED00015D101237FE07B685B68022B07D1414B42
:103EE0001B6803F00073002B09D1012373E03D4BE5
:103EF0001B6803F00203002B01D101236BE0394B57
:103F00005B6823F003027B685B68364913434B60B0
:103F1000FEF708FAF8600AE0FEF704FA0246FB68CA
:103F2000D31A41F28832934201D9032353E02D4B37
:103F30005B6803F00C027B685B689B009A42EBD1E4
:103F4000274B1B6803F007033A689A4210D2244BB0
:103F50001B6823F0070222493B6813430B60204B88
:103F60001B6803F007033A689A4201D0012332E04C
:103F70007B681B6803F00403002B08D0194B5B68B7
:103F800023F4E0627B68DB68164913434B607B686F
:103F90001B6803F00803002B09D0124B5B6823F465
:103FA00060527B681B69DB000E4913434B6000F0D5
:103FB00021F802460B4B5B681B0903F00F030A490B
:103FC000CB5C22FA03F3094A1360094B1B681846BD
:103FD000FEF766F9002318461037BD4680BD00BFC6
:103FE00000200240001002400C7300080000002076
:103FF0000400002080B487B000AF0023FB600023E2
:10400000BB6000237B6100237B6000233B611E4B70
:104010005B68FB60FB6803F00C03042B02D0082BE9
:1040200003D027E0194B3B6127E0FB689B0C03F0B2
:104030000F03174AD35C7B60FB6803F48033002BCB
:1040400010D0114B5B685B0C03F00103114AD35C89
:10405000BB607B680D4A03FB02F2BB68B2FBF3F363
:104060007B6104E07B680C4A02FB03F37B617B69A4
:104070003B6102E0054B3B6100BF3B6918461C37C2
:10408000BD4680BC704700BF0010024000127A009D
:10409000F88300080884000800093D0080B400AFE0
:1040A000024B1B681846BD4680BC704700000020CC
:1040B00080B500AFFFF7F2FF0246054B5B681B0AB5
:1040C00003F007030349CB5C22FA03F3184680BDD3
:1040D000001002401C73000880B500AFFFF7DEFF40
:1040E0000246054B5B68DB0A03F007030349CB5C20
:1040F00022FA03F3184680BD001002401C7300082A
:1041000080B485B000AF78600A4B1B680A4AA2FBF6
:1041100003235B0A7A6802FB03F3FB6000BFFB68C2
:104120005A1EFA60002BF9D100BF00BF1437BD46FC
:1041300080BC704700000020D34D621080B582B073
:1041400000AF78607B68002B01D1012342E07B68DF
:1041500093F84130DBB2002B06D17B68002283F854
:1041600040207868FDF7E0FB7B68242283F841203B
:104170007B681B68DA687B681B6822F40052DA608F
:10418000786800F071F97B681B681A697B681B68A6
:1041900022F490421A617B681B685A697B681B682D
:1041A00022F02A025A617B681B68DA687B681B6808
:1041B00042F40052DA607B6800225A647B68202255
:1041C00083F841207B68202283F842207B6800220C
:1041D0005A63002318460837BD4680BD80B58AB0B3
:1041E00002AFF860B9603B601346FB8000237B613F
:1041F000FB6893F84130DBB2202B75D1BB68002BF4
:1042000002D0FB88002B01D101236EE0FB68002265
:104210005A64FB68212283F84120FEF783F8786115
:10422000FB68FA889A84FB68FA88DA84FB689B68E2
:10423000B3F5805F08D1FB681B69002B04D1002314
:10424000FB61BB68BB6103E0BB68FB610023BB6132
:104250002EE03B6800937B6900228021F86800F023
:1042600048F80346002B05D0FB68202283F8412044
:1042700003233AE0FB69002B0BD1BB691B881A466C
:10428000FB681B68C2F308025A60BB690233BB615A
:1042900007E0FB691A78FB681B685A60FB69013309
:1042A000FB61FB68DB8C9BB2013B9AB2FB68DA8452
:1042B000FB68DB8C9BB2002BCBD13B6800937B6906
:1042C00000224021F86800F014F80346002B05D0C6
:1042D000FB68202283F84120032306E0FB682022AC
:1042E00083F84120002300E0022318462037BD4612
:1042F00080BD80B586B000AFF860B9603B60134602
:10430000FB713BE03B6AB3F1FF3F37D0FEF70AF8A1
:1043100002463B68D31A3A6A9A4202D33B6A002BA0
:1043200001D103233AE0FB681B68DB6803F0040358
:10433000002B23D0BB68802B20D0BB68402B1DD026
:10434000FB681B681B6803F00803082B16D10023C9
:104350007B61FB681B681B687B61FB681B685B6893
:104360007B617B69F86800F01DF8FB6808225A64DD
:10437000FB68002283F8402001230FE0FB681B68E4
:104380001A68BB681340BA689A420CBF0123002325
:10439000DBB21A46FB799A42B4D00023184618378C
:1043A000BD4680BD80B495B000AF78607B681B6867
:1043B0000C337B637B6B53E8003F3B633B6B23F425
:1043C0009073FB647B681B680C33FA6C3A64FB6384
:1043D000F96B3A6C41E80023BB63BB6B002BE5D162
:1043E0007B681B6814333B623B6A53E8003FFB6108
:1043F000FB6923F00103BB647B681B681433BA6C50
:10440000FA62BB62B96AFA6A41E800237B627B6A9E
:10441000002BE5D17B681B6B012B19D17B681B68D6
:104420000C33FB60FB6853E8003FBB60BB6823F0C4
:1044300010037B647B681B680C337A6CBA617B6108
:104440007969BA6941E800233B613B69002BE5D1FA
:104450007B68202283F842207B6800221A6300BF19
:104460005437BD4680BC704780B584B000AF7860DB
:104470007B681B681B6923F440517B68DA687B68A2
:104480001B680A431A617B689A687B681B691A4338
:104490007B685B691343BB607B681B68DB6823F444
:1044A000B05323F00C037A681268B9680B43D360E9
:1044B0007B681B685B6923F440717B689A697B6841
:1044C0001B680A435A617B681B682C4A934203D1DC
:1044D000FFF702FEF86002E0FFF7EAFDF860FA6815
:1044E00013469B0013449A001A447B685B689B0048
:1044F000B2FBF3F3224AA2FB03235B091901FA681A
:1045000013469B0013449A001A447B685B689B0027
:10451000B2FBF3F21A4BA3FB02035B09642000FB1E
:1045200003F3D31A1B013233154AA2FB03235B09A1
:1045300003F0F0031944FA6813469B0013449A00F1
:104540001A447B685B689B00B2FBF3F20C4BA3FB45
:1045500002035B09642000FB03F3D31A1B0132330F
:10456000074AA2FB03235B0903F00F027B681B6869
:104570000A449A6000BF1037BD4680BD0038014034
:104580001F85EB51002B2DE9F0471D46BBBF03F102
:1045900000431D4600232D2388B01446B8BF14469F
:1045A000129A109E1370149BDDF84CA023F0200883
:1045B000B8F1460F05D0B8F1450F00D101360223FE
:1045C00000E0032307AA049206AACDE902A2CDE9DE
:1045D000003622462B4600F08BFEB8F1470F074607
:1045E00019D1119BDB070ED500EB06090022002331
:1045F00020462946FCF7D8F908B1CDF81C903022A6
:10460000079B4B451ED33846079B159ADB1B13604F
:1046100008B0BDE8F087B8F1460F00EB0609E5D118
:104620000378302B0AD10022002320462946FCF7CC
:10463000BBF918B9C6F10106CAF80060DAF8003013
:104640009944D3E7591C07911A70D9E7F7B50029A7
:10465000B6BF2D232B23494209290270437029DD5F
:104660000DF107031D460A27B1FBF7F61A4607FBB3
:104670001614303402F8014C0C46632C314603F119
:10468000FF33F1DC3031941E03F8011C2346411C3A
:10469000AB420AD30DF109039B1AAC4288BF002339
:1046A00002330344181A03B0F0BD13F8016B01F88C
:1046B000016FEDE7302330318370C170031DF1E7E6
:1046C0002DE9F04F91B00C46DDF8688016461F4684
:1046D000054600F0F1FC036818460893FBF738FD27
:1046E00000230E93D8F800300990073323F0070316
:1046F00003F1080294F818A0D4F800B0C8F800201C
:10470000D3E9008929F000430B93CDF828804FF0BE
:10471000FF32DDE90A01C4E912899C4BFCF776F906
:1047200070BBDDE90A014FF0FF32984BFCF750F9FE
:1047300030BB0022002340464946FCF73FF910B148
:104740002D2384F84330924A924BBAF1470F94BF1D
:104750009046984603234FF0000923612BF0040391
:10476000236033462146284600970FAA00F0D4F96B
:10477000013040F090804FF0FF3011B0BDE8F08F75
:1047800042464B4640464946FCF740F948B14B4645
:10479000002BB8BF2D23804AB8BF84F843307F4B2D
:1047A000D3E763680AF0DF015A1C3FD10623636038
:1047B00000224BF48063236006920EAACDE904A286
:1047C0000DAA03920DF13302CDE90132636842462E
:1047D000009328464B460A91FFF7D4FE0A9980467B
:1047E00047290D9928D1C81C02DB6368994240DD36
:1047F000AAF1020A5FFA8AFA5246013904F150001E
:104800000D91FFF723FF0E9A81461318012A2361A9
:1048100002DC2268D20701D5013323619DF83330D1
:10482000002B9ED02D2384F843309AE74729BFD12F
:10483000002BBDD10123BAE7BAF1650FDCD9BAF17B
:10484000660F18D1002963680BDD216113B9226856
:10485000D00702D501330B4423614FF00009A16555
:10486000DCE713B92268D20701D50233F4E701234C
:10487000F2E74FF0670A0E9B994205DB236821613E
:10488000D807EAD54B1CE7E70029CCBF0122C1F1CC
:1048900002021344E0E723685A0507D4236942461D
:1048A00031462846B84701302BD164E7BAF1650F8D
:1048B00040F2DC80D4E9120100220023FCF774F8F6
:1048C000002833D0012331462846354AB847013005
:1048D0003FF451AFDDE90D38434502DB2368D807CB
:1048E0000FD5DDE9082331462846B84701303FF4AB
:1048F00042AF4FF0000908F1FF3804F11A0AC84529
:1049000009DC23689B0700F10281E0680F9B984255
:10491000B8BF184631E70123524631462846B8470A
:1049200001303FF428AF09F10109E8E70D9B002BA6
:1049300038DC012331462846194AB84701303FF494
:104940001AAFDDE90D3959EA030302D12368D9070B
:10495000D7D5DDE9082331462846B84701303FF472
:104960000AAF4FF0000A04F11A0B0D9B5B4253454E
:1049700001DC4B4693E701235A4631462846B847A7
:1049800001303FF4F8AE0AF1010AEEE7FFFFEF7FD6
:104990000A8400080E8400081284000816840008A7
:1049A0001A840008A36DDDF838A05345A8BF53460C
:1049B000002B994636DC4FF0000B29EAE97904F127
:1049C0001A02A36D0A93A3EB09035B4531DC0D9B2F
:1049D0009A453ADC2368DA0737D40D9BAAEB030922
:1049E0000A9BAAEB03039945A8BF9946B9F1000FAA
:1049F00033DC4FF0000829EAE97904F11A0B0D9B2A
:104A0000AAEB0303A3EB090343457FF77AAF012326
:104A10005A4631462846B84701303FF4ACAE08F15B
:104A20000108ECE7424631462846B8470130C2D17A
:104A3000A1E60123314628460A92B84701303FF4E7
:104A40009AAE0A9A0BF1010BBBE73146DDE9082368
:104A50002846B8470130C0D18DE60A9A4B46314608
:104A600028464244B8470130C3D184E6DDF838A077
:104A7000BAF1010F01DCDB0736D50123424631468E
:104A80002846B84701303FF476AEDDE908233146C9
:104A90002846B84701303FF46EAED4E91201002237
:104AA00000230AF1FF3AFBF77FFFC0B9534608F134
:104AB000010231462846B84701300CD15BE601239C
:104AC0005A4631462846B84701303FF454AE08F103
:104AD0000108D045F3DB4B4604F15002E0E64FF00D
:104AE000000804F11A0BF4E701234246E1E7012331
:104AF0004A4631462846B84701303FF43CAE08F1FB
:104B00000108E3680F995B1A4345F0DCFDE64FF0BE
:104B1000000804F11909F4E72DE9F0471646984614
:104B20008A680B6907469342B8BF1346336091F811
:104B300043200C46DDF820900AB10133336023682E
:104B4000990642BF336802333360256815F00605C5
:104B500006D104F1190AE36832689B1AAB422BDCD8
:104B600094F843302268003B18BF0123920630D4EA
:104B70004146384604F14302C847013023D0236838
:104B8000226903F00603042B14BF002533684FF09D
:104B9000000608BFE56804F11A0408BFED1A54F8CE
:104BA000123C08BF25EAE5759342C4BF9B1AED1875
:104BB000B5421AD1002008E001235246414638464A
:104BC000C847013003D14FF0FF30BDE8F087013511
:104BD000C1E73020E11881F843005A1C94F84510D1
:104BE0002244023382F84310C2E7012322464146A1
:104BF0003846C8470130E6D00136D9E72DE9FF47EE
:104C00000F7E9146782F80460C469A460C9E01F105
:104C1000430207D8622F0AD8002F00F0D380582F04
:104C200000F0BA8004F1420684F842703AE0A7F13D
:104C30006303152BF6D801A151F823F0954C000819
:104C4000A94C0008254C0008254C0008254C0008FC
:104C5000254C0008A94C0008254C0008254C0008EC
:104C6000254C0008254C0008AB4D0008D34C00082B
:104C7000654D0008254C0008254C0008CD4D000866
:104C8000254C0008D34C0008254C0008254C000892
:104C90006D4D000833681A1D1B68326004F142062E
:104CA00084F8423001239EE033682068191D31608A
:104CB000060601D51D6803E04506FBD5B3F9005093
:104CC000002D03DA2D236D4284F843300A2359481E
:104CD00011E021683368080653F8045B02D44906E2
:104CE00048BFADB26F2F336014BF0A230823514869
:104CF000002184F843106668002EA8BF2168A660D2
:104D0000A4BF21F0040121600DB9002E4BD016463E
:104D1000B5FBF3F103FB1157C75D06F8017D2F4684
:104D2000BB420D46F4D9082B0BD12368DF0708D509
:104D3000236961689942DEBF302306F8013C06F121
:104D4000FF36921B22614B4621464046CDF800A01B
:104D500003AAFFF7E1FE01304AD14FF0FF3004B063
:104D6000BDE8F087236843F02003236078273248AA
:104D700084F84570236831681F0651F8045B02D43B
:104D80005F0648BFADB23160D90744BF43F020038E
:104D900023601DB11023ABE72648E9E7236823F021
:104DA00020032360F6E71646BDE733682568181D23
:104DB000616930602E061B6801D5196002E0680643
:104DC000FBD51980002316462361BCE73368002118
:104DD0001A1D32601E686268304600F0E4F908B1BE
:104DE000801B606063682361002384F84330AAE776
:104DF0003246494640462369D0470130ADD023684A
:104E00009B0713D4E068039B9842B8BF1846A6E7F7
:104E10000123324649464046D04701309DD00135F6
:104E2000E36803995B1AAB42F2DCEBE7002504F17F
:104E30001906F5E71C8400082D840008002310B52E
:104E40000446C0E90033C0E90433836081814366CE
:104E5000C2818361194608225C3000F024F90D4BB1
:104E6000246263620C4BA3620C4BE3620C4B236322
:104E70000C4B9C4206D003F16802944202D0D0331E
:104E80009C4205D104F15800BDE8104000F088B9FB
:104E900010BD00BF01500008235000085B500008FF
:104EA0007F5000081C070020024A0349034800F015
:104EB00069B800BF0C0000202D6B00081C0000200A
:104EC00041680C4B10B59942044601D001F02EFE0A
:104ED000A168094B994202D0204601F027FEE16803
:104EE000064B994204D02046BDE8104001F01EBE9A
:104EF00010BD00BF1C07002084070020EC07002025
:104F000010B50B4B0B4C0C4A20461A6004210022B2
:104F1000FFF794FF04F1680001220921FFF78EFFDB
:104F200004F1D0000222BDE810401221FFF786BF35
:104F3000540800201C070020A94E0008014800F07A
:104F400030B900BF5D080020014800F02BB900BF58
:104F50005D08002010B50446FFF7F0FF236A1BB17F
:104F6000BDE81040FFF7F0BF044B2362044B1B6801
:104F7000002BF5D1FFF7C4FFF2E700BFC14E0008D8
:104F8000540800202DE9F8430746884614460026B9
:104F9000D4E90195B9F1010905D52468002CF7D1B0
:104FA0003046BDE8F883AB89012B07D9B5F90E303F
:104FB000013303D029463846C04706436835E9E740
:104FC0000EB46FF0004100B59CB01DAB029006908E
:104FD000079104910848094953F8042B059100688A
:104FE00002A9019301F026FC0022029B1A701CB05A
:104FF0005DF804EB03B07047180000200802FFFFC3
:1050000010B50C46B1F90E1000F07CF80028ABBFCB
:10501000636DA3891B1823F48053ACBF6365A38120
:1050200010BD2DE9F0411F468B890546DB050C4676
:10503000164605D502230022B1F90E1000F050F8F3
:10504000A389324623F48053A38128463B46B4F912
:105050000E10BDE8F04100F067B810B50C46B1F98C
:105060000E1000F03DF8431CA38915BF606523F4C2
:10507000805343F48053A38118BFA38110BDB1F9BD
:105080000E1000F01DB810B501390244904201D154
:10509000002005E0037811F8014FA34201D0181B4E
:1050A00010BD0130F2E703460244934200D170473D
:1050B00003F8011BF9E70000004870475801002081
:1050C00038B50023054D044608462B60FCF795FBD8
:1050D000431C02D12B6803B1236038BD580800205F
:1050E00038B50446084611460022054D2A601A4686
:1050F000FCF7A7FB431C02D12B6803B1236038BD2A
:105100005808002038B50446084611460022054DCF
:105110002A601A46FCF738FB431C02D12B6803B106
:10512000236038BD5808002038B5044608461146AB
:105130000022054D2A601A46FCF743FB431C02D1AE
:105140002B6803B1236038BD58080020014B186854
:10515000704700BF1800002070B500260C4D0D4CA4
:10516000641BA410A64209D102F06EF800260A4D75
:105170000A4C641BA410A64205D170BD55F8043B2F
:1051800098470136EEE755F8043B98470136F2E7B9
:1051900080870008808700088087000884870008CF
:1051A000704770477047034610B5C9B20244934236
:1051B000184601D1002003E0047801338C42F6D177
:1051C00010BD0A44914200F1FF3300D1704710B581
:1051D00011F8014B914203F8014FF9D110BD2DE9AF
:1051E000F74F03690C690746A3427EDB013CA3002D
:1051F00000F1140501F11408009305EB84030193F9
:1052000058F8243055F8242001339A42B2FBF3F6C3
:1052100008EB84092ED34FF0000AC446AE46D346AD
:105220005CF8043B98B206FB00A01B0C020C06FBCA
:105230000323DEF8002080B292B2121A5A44DEF83C
:1052400000004FEA134A9BB2C3EB224303EB104327
:1052500092B242EA0342E1454FEA234B4EF8042B57
:10526000DED2009BEB582BB9019B043B9D421A46B2
:105270002FD33C61384601F079F9002825DB294617
:10528000002058F8042BD1F800C01FFA82FE1FFA44
:105290008CF3A3EB0E030344120CC2EB234202EB8C
:1052A0001C429BB243EA0243C1454FEA224041F807
:1052B000043BE6D255F8242005EB840322B9043BD5
:1052C0009D421A460BD33C610136304603B0BDE81F
:1052D000F08F1268043B002ACBD1013CC6E712686C
:1052E000043B002AEFD1013CEAE70020EEE7000092
:1052F0002DE9F04F14461D46C76997B08346CDE9A6
:105300000245239E7FB9102000F002FE0246CBF832
:105310001C0020B9EF21A84BA84801F059FCC0E9B6
:1053200001770760C760DBF81C30196859B15A680B
:10533000012393404A608B60584600F0DFFE002254
:10534000DBF81C301A602B1EAFBF0023012223F0B4
:1053500000430393A8BF3360DDF80C80984BB8BFBF
:10536000326033EA080312D142F20F73229A1360BB
:10537000C8F31303234300F05085249BDFF844A2B5
:10538000002B00F052850AF1030300F04CBDDDE96B
:105390000223CDE90C23DDE90C0100220023FBF7F9
:1053A00003FB074658B10123229A1360249B13B1D3
:1053B000854B249A1360DFF814A200F036BD14ABBD
:1053C000019315AB00935846DDE90C2301F07EF9FB
:1053D000C8F30A568146002E77D0DDE90C010D9BFB
:1053E000A6F2FF36C3F3130343F07F5343F4401395
:1053F000129719460022764BFAF7B6FE68A3D3E956
:105400000023FBF769F868A3D3E90023FAF7AEFE9F
:10541000044630460D46FAF7F5FF65A3D3E90023AD
:10542000FBF75AF802460B4620462946FAF79EFE3D
:1054300004460D46FBF700FB0022074600232046EA
:105440002946FBF7BBFA40B13846FAF7DBFF2246A4
:105450002B46FBF7A9FA00B9013F162F53D8DDE917
:105460000C015C4B03EBC703D3E90023FBF7A6FA5F
:1054700000284AD00023013F0F93149B9B1B5A1E08
:1054800046BFC3F1010800234FF00008099248BF4E
:105490000993002F3BDB099B0E973B4409930023A4
:1054A0000A93209B092B66D8052BC4BF043B20938D
:1054B000209BC8BF0024A3F10203D8BF0124032B03
:1054C00064D8DFE803F02B383656DDE914631E4458
:1054D00006F23243202BC1BFC3F1400308FA03F8A0
:1054E00006F2124324FA03F3D6BFC3F1200348EABD
:1054F000030004FA03F0FAF775FF0122A1F1F87333
:10550000013E129275E70123B6E70F90B5E77B42A3
:105510000A930023A8EB07080E93C2E700230B931E
:10552000219B002B35DC01231A46CDE9073321925C
:105530000BE00123F3E700230B93219BFB18089357
:105540000133012B0793B8BF012300210422DBF8AC
:105550001C0002F114059D421FD94160584600F01D
:105560008DFD8246002839D1024640F2AF111A4B18
:10557000D2E60123E0E7012400230B9420934FF0AF
:10558000FF330022CDE907331223D0E701230B9329
:10559000F5E7219BCDE90733D7E701315200D8E782
:1055A00061436F63A787D23FB3C8608B288AC63F29
:1055B000FB799F501344D33F4B840008628400085A
:1055C0000000F07F478400081B8400081A8400084C
:1055D0000000F83F58850008BA840008DBF81C304A
:1055E0001860079B0E2B00F2A480002C00F0A18015
:1055F000002F33DD864B07F00F0203EBC203F805E3
:10560000D3E90034CDE904344FEA271416D5DDE997
:105610000C01804B0326D3E90823FBF787F8CDE97B
:10562000020104F00F047B4D54B9DDE90423DDE9E8
:105630000201FBF77BF8CDE9020128E00226F2E740
:10564000E10708D5DDE90401D5E90023FAF744FFB5
:10565000CDE90401013664100835E5E700F0D28099
:10566000DDE90C017C426A4B04F00F0203EBC2033C
:10567000D3E90023FAF730FF02260023CDE9020127
:10568000644D2411002C40F0B280002BD3D1DDE911
:1056900002450F9B002B00F0B780002220462946D0
:1056A0005D4BFBF78BF9002800F0AE80079B002BC9
:1056B00000F0AA80089B002B37DD7B1E2046049358
:1056C00000222946554BFAF707FFCDE90201089C55
:1056D00001363046FAF796FEDDE90223FAF7FCFEC2
:1056E00000224F4BFAF742FD0546A1F15076002CFF
:1056F00040F09A80DDE9020100224A4BFAF734FDBE
:1057000002460B46CDE902232A463346FBF774F9DD
:10571000002840F08E82DDE902012A4606F10043AE
:10572000FBF74CF9002840F02781DDE90C34CDE986
:105730000234159B002BC0F263810E2F00F36081B1
:10574000334B03EBC703D3E90034CDE90434219B89
:10575000002B03DA079B002B40F30081DDE90245B3
:105760005646DDE9042320462946FAF7DFFFFBF71A
:1057700063F98046FAF746FEDDE90423FAF7ACFE4A
:1057800002460B4620462946FAF7EEFC08F13004A3
:10579000079D06F8014BA6EB0A04A54202460B46FC
:1057A00040F01681FAF7E2FCDDE9042304460D46D9
:1057B000FBF722F9002840F0F880DDE904232046B9
:1057C0002946FBF7F1F818B118F0010F40F0ED8011
:1057D0004946584600F092FC00233370229B013763
:1057E0001F60249B002B00F020831E601DE3E20756
:1057F00005D5D5E90023FAF76FFE012301366410C1
:1058000008353FE7022642E7079C049761E700BF9F
:1058100058850008308500080000F03F0000244053
:1058200000001C4000001440704B0B9903EBC403B4
:1058300053E902235444002945D000206C49FAF76B
:1058400075FF33462A46FAF78FFC5646CDE910011C
:10585000DDE90201FBF7F0F80546FAF7D3FD024651
:105860000B46DDE90201FAF77FFC02460B463035B4
:10587000CDE90223DDE9102306F8015BFBF79EF872
:10588000002863D1DDE9022300205A49FAF76CFCB5
:10589000DDE91023FBF792F8002840F08780A6424C
:1058A0003FF443AFDDE910010022534BFAF714FE39
:1058B0000022CDE91001DDE902014F4BFAF70CFEA1
:1058C000CDE90201C4E731462846FAF705FE5646FF
:1058D000CDE910011394DDE90201FBF7ADF80546AF
:1058E000FAF790FD02460B46DDE90201FAF73CFCAF
:1058F00002460B46303506F8015BA642CDE902238D
:105900004FF0000224D1DDE91001394BFAF72EFCEB
:1059100002460B46DDE90201FBF76EF8002845D18F
:10592000DDE9102300203249FAF71EFC02460B463F
:10593000DDE90201FBF742F800283FF4F6AE139EC2
:10594000731E139316F8013C302BF8D0049F3FE7E9
:10595000294BFAF7C1FDCDE90201BCE70CD1DDE925
:1059600004010022254BFAF7B7FDDDE90223FBF71E
:1059700039F8002800F05B8100242546219B56461B
:10598000DB43049300272146584600F0B7FB002D67
:10599000DCD02FB1AF4203D03946584600F0AEFB01
:1059A0002946584600F0AAFBD0E7049733461E4626
:1059B00013F8012D392A07D19A45F8D1049A0132FA
:1059C000049230228AF800201A7801321A70BDE75A
:1059D0000022094BFAF780FD0022002304460D4601
:1059E000FAF7E2FF00283FF4BCAEF1E65885000864
:1059F0000000E03F0000F03F0000244000001440A1
:105A00000B9A002A00F0DB80209A012A00F3BF8065
:105A1000129A002A00F0B78003F2334346460A9CEC
:105A2000099A01211A4458469844099200F01AFC38
:105A300005465EB1099B002B08DDB342A8BF334683
:105A4000099AA8EB0308F61AD31A09930A9BF3B133
:105A50000B9B002B00F0B7808CB12946224658469C
:105A600000F0BEFC4A4601460546584600F010FCD0
:105A700049460490584600F041FB049B99460A9B16
:105A80001A1B04D04946584600F0AAFC8146012161
:105A9000584600F0E7FB0E9B0446002B00F0C9813E
:105AA0001A460146584600F09BFC209B0446012BF9
:105AB00000F38F80029B002B40F08780039BC3F391
:105AC0001303002B40F08380039B23F000431B0D46
:105AD0001B052BB1099B08F1010801330993012330
